{
  "contractName": "ExternalStorage",
  "abi": [
    {
      "constant": true,
      "inputs": [],
      "name": "owner",
      "outputs": [
        {
          "name": "",
          "type": "address"
        }
      ],
      "payable": false,
      "stateMutability": "view",
      "type": "function"
    },
    {
      "constant": false,
      "inputs": [
        {
          "name": "newOwner",
          "type": "address"
        }
      ],
      "name": "transferOwnership",
      "outputs": [],
      "payable": false,
      "stateMutability": "nonpayable",
      "type": "function"
    },
    {
      "anonymous": false,
      "inputs": [
        {
          "indexed": true,
          "name": "previousOwner",
          "type": "address"
        },
        {
          "indexed": true,
          "name": "newOwner",
          "type": "address"
        }
      ],
      "name": "OwnershipTransferred",
      "type": "event"
    },
    {
      "constant": true,
      "inputs": [
        {
          "name": "_key",
          "type": "bytes32"
        }
      ],
      "name": "getAddress",
      "outputs": [
        {
          "name": "",
          "type": "address"
        }
      ],
      "payable": false,
      "stateMutability": "view",
      "type": "function"
    },
    {
      "constant": true,
      "inputs": [
        {
          "name": "_key",
          "type": "bytes32"
        }
      ],
      "name": "getUint",
      "outputs": [
        {
          "name": "",
          "type": "uint256"
        }
      ],
      "payable": false,
      "stateMutability": "view",
      "type": "function"
    },
    {
      "constant": true,
      "inputs": [
        {
          "name": "_key",
          "type": "bytes32"
        }
      ],
      "name": "getBytes",
      "outputs": [
        {
          "name": "",
          "type": "bytes32"
        }
      ],
      "payable": false,
      "stateMutability": "view",
      "type": "function"
    },
    {
      "constant": true,
      "inputs": [
        {
          "name": "_key",
          "type": "bytes32"
        }
      ],
      "name": "getBool",
      "outputs": [
        {
          "name": "",
          "type": "bool"
        }
      ],
      "payable": false,
      "stateMutability": "view",
      "type": "function"
    },
    {
      "constant": true,
      "inputs": [
        {
          "name": "_key",
          "type": "bytes32"
        }
      ],
      "name": "getInt",
      "outputs": [
        {
          "name": "",
          "type": "int256"
        }
      ],
      "payable": false,
      "stateMutability": "view",
      "type": "function"
    },
    {
      "constant": true,
      "inputs": [
        {
          "name": "_key",
          "type": "bytes32"
        }
      ],
      "name": "getString",
      "outputs": [
        {
          "name": "",
          "type": "string"
        }
      ],
      "payable": false,
      "stateMutability": "view",
      "type": "function"
    },
    {
      "constant": true,
      "inputs": [
        {
          "name": "_key",
          "type": "bytes32"
        }
      ],
      "name": "getBuffer",
      "outputs": [
        {
          "name": "",
          "type": "bytes"
        }
      ],
      "payable": false,
      "stateMutability": "view",
      "type": "function"
    },
    {
      "constant": false,
      "inputs": [
        {
          "name": "_key",
          "type": "bytes32"
        },
        {
          "name": "_value",
          "type": "address"
        }
      ],
      "name": "setAddress",
      "outputs": [
        {
          "name": "",
          "type": "bool"
        }
      ],
      "payable": false,
      "stateMutability": "nonpayable",
      "type": "function"
    },
    {
      "constant": false,
      "inputs": [
        {
          "name": "_key",
          "type": "bytes32"
        },
        {
          "name": "_value",
          "type": "uint256"
        }
      ],
      "name": "setUint",
      "outputs": [
        {
          "name": "",
          "type": "bool"
        }
      ],
      "payable": false,
      "stateMutability": "nonpayable",
      "type": "function"
    },
    {
      "constant": false,
      "inputs": [
        {
          "name": "_key",
          "type": "bytes32"
        },
        {
          "name": "_value",
          "type": "bytes32"
        }
      ],
      "name": "setBytes",
      "outputs": [
        {
          "name": "",
          "type": "bool"
        }
      ],
      "payable": false,
      "stateMutability": "nonpayable",
      "type": "function"
    },
    {
      "constant": false,
      "inputs": [
        {
          "name": "_key",
          "type": "bytes32"
        },
        {
          "name": "_value",
          "type": "bool"
        }
      ],
      "name": "setBool",
      "outputs": [
        {
          "name": "",
          "type": "bool"
        }
      ],
      "payable": false,
      "stateMutability": "nonpayable",
      "type": "function"
    },
    {
      "constant": false,
      "inputs": [
        {
          "name": "_key",
          "type": "bytes32"
        },
        {
          "name": "_value",
          "type": "int256"
        }
      ],
      "name": "setInt",
      "outputs": [
        {
          "name": "",
          "type": "bool"
        }
      ],
      "payable": false,
      "stateMutability": "nonpayable",
      "type": "function"
    },
    {
      "constant": false,
      "inputs": [
        {
          "name": "_key",
          "type": "bytes32"
        },
        {
          "name": "_value",
          "type": "string"
        }
      ],
      "name": "setString",
      "outputs": [
        {
          "name": "",
          "type": "bool"
        }
      ],
      "payable": false,
      "stateMutability": "nonpayable",
      "type": "function"
    },
    {
      "constant": false,
      "inputs": [
        {
          "name": "_key",
          "type": "bytes32"
        },
        {
          "name": "_value",
          "type": "bytes"
        }
      ],
      "name": "setBuffer",
      "outputs": [
        {
          "name": "",
          "type": "bool"
        }
      ],
      "payable": false,
      "stateMutability": "nonpayable",
      "type": "function"
    }
  ],
  "bytecode": "0x606060405260008054600160a060020a033316600160a060020a0319909116179055610939806100306000396000f3006060604052600436106100e55763ffffffff7c010000000000000000000000000000000000000000000000000000000060003504166321f8a72181146100ea5780632e0050761461011c5780633e49bed014610186578063553448ca1461019f5780636e8995501461022c5780637ae1cfca146102825780638da5cb5b14610298578063986e791a146102ab578063abfdcced146102c1578063bd02d0f5146102dc578063c031a18014610304578063ca446dd91461031a578063d5d2c5601461033c578063dc97d96214610355578063e2a4853a1461036b578063f2fde38b14610384575b600080fd5b34156100f557600080fd5b6101006004356103a5565b604051600160a060020a03909116815260200160405180910390f35b341561012757600080fd5b610172600480359060446024803590810190830135806020601f820181900481020160405190810160405281815292919060208401838380828437509496506103c095505050505050565b604051901515815260200160405180910390f35b341561019157600080fd5b610172600435602435610407565b34156101aa57600080fd5b6101b5600435610457565b60405160208082528190810183818151815260200191508051906020019080838360005b838110156101f15780820151838201526020016101d9565b50505050905090810190601f16801561021e5780820380516001836020036101000a031916815260200191505b509250505060405180910390f35b341561023757600080fd5b610172600480359060446024803590810190830135806020601f8201819004810201604051908101604052818152929190602084018383808284375094965061051a95505050505050565b341561028d57600080fd5b610172600435610555565b34156102a357600080fd5b61010061056a565b34156102b657600080fd5b6101b5600435610579565b34156102cc57600080fd5b6101726004356024351515610605565b34156102e757600080fd5b6102f260043561066a565b60405190815260200160405180910390f35b341561030f57600080fd5b6102f260043561067c565b341561032557600080fd5b610172600435600160a060020a036024351661068e565b341561034757600080fd5b610172600435602435610713565b341561036057600080fd5b6102f2600435610763565b341561037657600080fd5b610172600435602435610775565b341561038f57600080fd5b6103a3600160a060020a03600435166107c5565b005b600090815260026020526040902054600160a060020a031690565b6000805433600160a060020a039081169116146103dc57600080fd5b60008381526005602052604090208280516103fb929160200190610860565b50600190505b92915050565b6000805433600160a060020a0390811691161461042357600080fd5b60008381526007602052604090205482141561044157506000610401565b5060009182526007602052604090912055600190565b61045f6108de565b6005600083600019166000191681526020019081526020016000208054600181600116156101000203166002900480601f01602080910402602001604051908101604052809291908181526020018280546001816001161561010002031660029004801561050e5780601f106104e35761010080835404028352916020019161050e565b820191906000526020600020905b8154815290600101906020018083116104f157829003601f168201915b50505050509050919050565b6000805433600160a060020a0390811691161461053657600080fd5b60008381526003602052604090208280516103fb929160200190610860565b60009081526006602052604090205460ff1690565b600054600160a060020a031681565b6105816108de565b6003600083600019166000191681526020019081526020016000208054600181600116156101000203166002900480601f01602080910402602001604051908101604052809291908181526020018280546001816001161561010002031660029004801561050e5780601f106104e35761010080835404028352916020019161050e565b6000805433600160a060020a0390811691161461062157600080fd5b60008381526006602052604090205460ff161515821515141561064657506000610401565b50600091825260066020526040909120805460ff1916911515919091179055600190565b60009081526001602052604090205490565b60009081526004602052604090205490565b6000805433600160a060020a039081169116146106aa57600080fd5b600083815260026020526040902054600160a060020a03838116911614156106d457506000610401565b5060008281526002602052604090208054600160a060020a03831673ffffffffffffffffffffffffffffffffffffffff19909116179055600192915050565b6000805433600160a060020a0390811691161461072f57600080fd5b60008381526004602052604090205482141561074d57506000610401565b5060009182526004602052604090912055600190565b60009081526007602052604090205490565b6000805433600160a060020a0390811691161461079157600080fd5b6000838152600160205260409020548214156107af57506000610401565b5060009182526001602081905260409092205590565b60005433600160a060020a039081169116146107e057600080fd5b600160a060020a03811615156107f557600080fd5b600054600160a060020a0380831691167f8be0079c531659141344cd1fd0a4f28419497f9722a3daafe3b4186f6b6457e060405160405180910390a36000805473ffffffffffffffffffffffffffffffffffffffff1916600160a060020a0392909216919091179055565b828054600181600116156101000203166002900490600052602060002090601f016020900481019282601f106108a157805160ff19168380011785556108ce565b828001600101855582156108ce579182015b828111156108ce5782518255916020019190600101906108b3565b506108da9291506108f0565b5090565b60206040519081016040526000815290565b61090a91905b808211156108da57600081556001016108f6565b905600a165627a7a723058204a567b11443713e42db0b2cba5a00ae1e404e37e752bf798355540d8cdcac69c0029",
  "source": "pragma solidity 0.4.19;\n\nimport \"zeppelin-solidity/contracts/ownership/Ownable.sol\";\n\n/// @title The primary persistent storage for updatable contracts\n/// @author Aler Denisov <aler.zampillo@gmail.com>\ncontract ExternalStorage is Ownable {\n\n    // ███████╗████████╗ ██████╗ ██████╗  █████╗  ██████╗ ███████╗    ███████╗██╗███████╗██╗     ██████╗ ███████╗\n    // ██╔════╝╚══██╔══╝██╔═══██╗██╔══██╗██╔══██╗██╔════╝ ██╔════╝    ██╔════╝██║██╔════╝██║     ██╔══██╗██╔════╝\n    // ███████╗   ██║   ██║   ██║██████╔╝███████║██║  ███╗█████╗      █████╗  ██║█████╗  ██║     ██║  ██║███████╗\n    // ╚════██║   ██║   ██║   ██║██╔══██╗██╔══██║██║   ██║██╔══╝      ██╔══╝  ██║██╔══╝  ██║     ██║  ██║╚════██║\n    // ███████║   ██║   ╚██████╔╝██║  ██║██║  ██║╚██████╔╝███████╗    ██║     ██║███████╗███████╗██████╔╝███████║\n    // ╚══════╝   ╚═╝    ╚═════╝ ╚═╝  ╚═╝╚═╝  ╚═╝ ╚═════╝ ╚══════╝    ╚═╝     ╚═╝╚══════╝╚══════╝╚═════╝ ╚══════╝                                                                                                              \n    mapping(bytes32 => uint)       private uintStorage;\n    mapping(bytes32 => address)    private addressStorage;\n    mapping(bytes32 => string)     private stringStorage;\n    mapping(bytes32 => bytes32)    private bytesStorage;\n    mapping(bytes32 => bytes)      private bufferStorage;\n    mapping(bytes32 => bool)       private boolStorage;\n    mapping(bytes32 => int)        private intStorage;\n\n\n    //  ██████╗ ███████╗████████╗████████╗███████╗██████╗ ███████╗\n    // ██╔════╝ ██╔════╝╚══██╔══╝╚══██╔══╝██╔════╝██╔══██╗██╔════╝\n    // ██║  ███╗█████╗     ██║      ██║   █████╗  ██████╔╝███████╗\n    // ██║   ██║██╔══╝     ██║      ██║   ██╔══╝  ██╔══██╗╚════██║\n    // ╚██████╔╝███████╗   ██║      ██║   ███████╗██║  ██║███████║\n    //  ╚═════╝ ╚══════╝   ╚═╝      ╚═╝   ╚══════╝╚═╝  ╚═╝╚══════╝\n    /// @param _key The key for the record\n    /// @return address value stored at providen key\n    function getAddress(bytes32 _key) public constant returns (address) {\n        return addressStorage[_key];\n    }\n\n    /// @param _key The key for the record\n    /// @return uint value stored at providen key\n    function getUint(bytes32 _key) public constant returns (uint) {\n        return uintStorage[_key];\n    }\n\n    /// @param _key The key for the record\n    /// @return bytes32 value stored at providen key\n    function getBytes(bytes32 _key) public constant returns (bytes32) {\n        return bytesStorage[_key];\n    }\n\n    /// @param _key The key for the record\n    /// @return bool value stored at providen key\n    function getBool(bytes32 _key) public constant returns (bool) {\n        return boolStorage[_key];\n    }\n\n    /// @param _key The key for the record\n    /// @return int value stored at providen key\n    function getInt(bytes32 _key) public constant returns (int) {\n        return intStorage[_key];\n    }\n\n    /// @param _key The key for the record\n    /// @return string value stored at providen key\n    function getString(bytes32 _key) public constant returns (string) {\n        return stringStorage[_key];\n    }\n\n    /// @param _key The key for the record\n    /// @return bytes buffer stored at providen key\n    function getBuffer(bytes32 _key) public constant returns (bytes) {\n        return bufferStorage[_key];\n    }\n\n    // ███████╗███████╗████████╗████████╗███████╗██████╗ ███████╗\n    // ██╔════╝██╔════╝╚══██╔══╝╚══██╔══╝██╔════╝██╔══██╗██╔════╝\n    // ███████╗█████╗     ██║      ██║   █████╗  ██████╔╝███████╗\n    // ╚════██║██╔══╝     ██║      ██║   ██╔══╝  ██╔══██╗╚════██║\n    // ███████║███████╗   ██║      ██║   ███████╗██║  ██║███████║\n    // ╚══════╝╚══════╝   ╚═╝      ╚═╝   ╚══════╝╚═╝  ╚═╝╚══════╝\n    /// @param _key The key for the record\n    /// @param _value to store at providen _key\n    /// @return bool is value is changed\n    function setAddress(bytes32 _key, address _value) onlyOwner public returns (bool) {\n        if (addressStorage[_key] == _value) {\n            return false;\n        }\n\n        addressStorage[_key] = _value;\n        return true;\n    }\n\n    /// @param _key The key for the record\n    /// @param _value to store at providen _key\n    /// @return bool is value is changed\n    function setUint(bytes32 _key, uint _value) onlyOwner public returns (bool) {\n        if (uintStorage[_key] == _value) {\n            return false;\n        }\n        uintStorage[_key] = _value;\n        return true;\n    }\n\n    /// @param _key The key for the record\n    /// @param _value to store at providen _key\n    /// @return bool is value is changed\n    function setBytes(bytes32 _key, bytes32 _value) onlyOwner public returns (bool) {\n        if (bytesStorage[_key] == _value) {\n            return false;\n        }\n        bytesStorage[_key] = _value;\n        return true;\n    }\n\n    /// @param _key The key for the record\n    /// @param _value to store at providen _key\n    /// @return bool is value is changed\n    function setBool(bytes32 _key, bool _value) onlyOwner public returns (bool) {\n        if (boolStorage[_key] == _value) {\n            return false;\n        }\n        boolStorage[_key] = _value;\n        return true;\n    }\n\n    /// @param _key The key for the record\n    /// @param _value to store at providen _key\n    /// @return bool is value is changed\n    function setInt(bytes32 _key, int _value) onlyOwner public returns (bool) {\n        if (intStorage[_key] == _value) {\n            return false;\n        }\n        intStorage[_key] = _value;\n        return true;\n    }\n\n    /// @param _key The key for the record\n    /// @param _value to store at providen _key\n    /// @return bool is value is changed\n    function setString(bytes32 _key, string _value) onlyOwner public returns (bool) {\n        stringStorage[_key] = _value;\n        return true;\n    }\n\n    /// @param _key The key for the record\n    /// @param _value to store at providen _key\n    /// @return bool is value is changed\n    function setBuffer(bytes32 _key, bytes _value) onlyOwner public returns (bool) {\n        bufferStorage[_key] = _value;\n        return true;\n    }\n}\n",
  "sourcePath": "/Users/aler/crypto/musereum/musereum-contracts/contracts/store/ExternalStorage.sol",
  "compiler": {
    "name": "solc",
    "version": "0.4.19+commit.c4cbbb05.Emscripten.clang"
  },
  "schemaVersion": "1.0.1",
  "updatedAt": "2018-03-02T12:21:15.942Z"
}