{
  "contractName": "ExternalStorage",
  "abi": [
    {
      "constant": true,
      "inputs": [],
      "name": "owner",
      "outputs": [
        {
          "name": "",
          "type": "address"
        }
      ],
      "payable": false,
      "stateMutability": "view",
      "type": "function"
    },
    {
      "constant": false,
      "inputs": [
        {
          "name": "newOwner",
          "type": "address"
        }
      ],
      "name": "transferOwnership",
      "outputs": [],
      "payable": false,
      "stateMutability": "nonpayable",
      "type": "function"
    },
    {
      "anonymous": false,
      "inputs": [
        {
          "indexed": true,
          "name": "previousOwner",
          "type": "address"
        },
        {
          "indexed": true,
          "name": "newOwner",
          "type": "address"
        }
      ],
      "name": "OwnershipTransferred",
      "type": "event"
    },
    {
      "constant": true,
      "inputs": [
        {
          "name": "_key",
          "type": "bytes32"
        }
      ],
      "name": "getAddress",
      "outputs": [
        {
          "name": "",
          "type": "address"
        }
      ],
      "payable": false,
      "stateMutability": "view",
      "type": "function"
    },
    {
      "constant": true,
      "inputs": [
        {
          "name": "_key",
          "type": "bytes32"
        }
      ],
      "name": "getUint",
      "outputs": [
        {
          "name": "",
          "type": "uint256"
        }
      ],
      "payable": false,
      "stateMutability": "view",
      "type": "function"
    },
    {
      "constant": true,
      "inputs": [
        {
          "name": "_key",
          "type": "bytes32"
        }
      ],
      "name": "getBytes",
      "outputs": [
        {
          "name": "",
          "type": "bytes32"
        }
      ],
      "payable": false,
      "stateMutability": "view",
      "type": "function"
    },
    {
      "constant": true,
      "inputs": [
        {
          "name": "_key",
          "type": "bytes32"
        }
      ],
      "name": "getBool",
      "outputs": [
        {
          "name": "",
          "type": "bool"
        }
      ],
      "payable": false,
      "stateMutability": "view",
      "type": "function"
    },
    {
      "constant": true,
      "inputs": [
        {
          "name": "_key",
          "type": "bytes32"
        }
      ],
      "name": "getInt",
      "outputs": [
        {
          "name": "",
          "type": "int256"
        }
      ],
      "payable": false,
      "stateMutability": "view",
      "type": "function"
    },
    {
      "constant": true,
      "inputs": [
        {
          "name": "_key",
          "type": "bytes32"
        }
      ],
      "name": "getString",
      "outputs": [
        {
          "name": "",
          "type": "string"
        }
      ],
      "payable": false,
      "stateMutability": "view",
      "type": "function"
    },
    {
      "constant": true,
      "inputs": [
        {
          "name": "_key",
          "type": "bytes32"
        }
      ],
      "name": "getBuffer",
      "outputs": [
        {
          "name": "",
          "type": "bytes"
        }
      ],
      "payable": false,
      "stateMutability": "view",
      "type": "function"
    },
    {
      "constant": false,
      "inputs": [
        {
          "name": "_key",
          "type": "bytes32"
        },
        {
          "name": "_value",
          "type": "address"
        }
      ],
      "name": "setAddress",
      "outputs": [
        {
          "name": "",
          "type": "bool"
        }
      ],
      "payable": false,
      "stateMutability": "nonpayable",
      "type": "function"
    },
    {
      "constant": false,
      "inputs": [
        {
          "name": "_key",
          "type": "bytes32"
        },
        {
          "name": "_value",
          "type": "uint256"
        }
      ],
      "name": "setUint",
      "outputs": [
        {
          "name": "",
          "type": "bool"
        }
      ],
      "payable": false,
      "stateMutability": "nonpayable",
      "type": "function"
    },
    {
      "constant": false,
      "inputs": [
        {
          "name": "_key",
          "type": "bytes32"
        },
        {
          "name": "_value",
          "type": "bytes32"
        }
      ],
      "name": "setBytes",
      "outputs": [
        {
          "name": "",
          "type": "bool"
        }
      ],
      "payable": false,
      "stateMutability": "nonpayable",
      "type": "function"
    },
    {
      "constant": false,
      "inputs": [
        {
          "name": "_key",
          "type": "bytes32"
        },
        {
          "name": "_value",
          "type": "bool"
        }
      ],
      "name": "setBool",
      "outputs": [
        {
          "name": "",
          "type": "bool"
        }
      ],
      "payable": false,
      "stateMutability": "nonpayable",
      "type": "function"
    },
    {
      "constant": false,
      "inputs": [
        {
          "name": "_key",
          "type": "bytes32"
        },
        {
          "name": "_value",
          "type": "int256"
        }
      ],
      "name": "setInt",
      "outputs": [
        {
          "name": "",
          "type": "bool"
        }
      ],
      "payable": false,
      "stateMutability": "nonpayable",
      "type": "function"
    },
    {
      "constant": false,
      "inputs": [
        {
          "name": "_key",
          "type": "bytes32"
        },
        {
          "name": "_value",
          "type": "string"
        }
      ],
      "name": "setString",
      "outputs": [
        {
          "name": "",
          "type": "bool"
        }
      ],
      "payable": false,
      "stateMutability": "nonpayable",
      "type": "function"
    },
    {
      "constant": false,
      "inputs": [
        {
          "name": "_key",
          "type": "bytes32"
        },
        {
          "name": "_value",
          "type": "bytes"
        }
      ],
      "name": "setBuffer",
      "outputs": [
        {
          "name": "",
          "type": "bool"
        }
      ],
      "payable": false,
      "stateMutability": "nonpayable",
      "type": "function"
    }
  ],
  "bytecode": "0x606060405260008054600160a060020a033316600160a060020a0319909116179055610b1c806100306000396000f3006060604052600436106100e55763ffffffff7c010000000000000000000000000000000000000000000000000000000060003504166321f8a72181146100ea5780632e0050761461011c5780633e49bed014610186578063553448ca1461019f5780636e8995501461022c5780637ae1cfca146102825780638da5cb5b14610298578063986e791a146102ab578063abfdcced146102c1578063bd02d0f5146102dc578063c031a18014610304578063ca446dd91461031a578063d5d2c5601461033c578063dc97d96214610355578063e2a4853a1461036b578063f2fde38b14610384575b600080fd5b34156100f557600080fd5b6101006004356103a5565b604051600160a060020a03909116815260200160405180910390f35b341561012757600080fd5b610172600480359060446024803590810190830135806020601f820181900481020160405190810160405281815292919060208401838380828437509496506103c095505050505050565b604051901515815260200160405180910390f35b341561019157600080fd5b6101726004356024356104f7565b34156101aa57600080fd5b6101b560043561054c565b60405160208082528190810183818151815260200191508051906020019080838360005b838110156101f15780820151838201526020016101d9565b50505050905090810190601f16801561021e5780820380516001836020036101000a031916815260200191505b509250505060405180910390f35b341561023757600080fd5b610172600480359060446024803590810190830135806020601f8201819004810201604051908101604052818152929190602084018383808284375094965061060f95505050505050565b341561028d57600080fd5b610172600435610738565b34156102a357600080fd5b61010061074d565b34156102b657600080fd5b6101b560043561075c565b34156102cc57600080fd5b61017260043560243515156107e8565b34156102e757600080fd5b6102f260043561084d565b60405190815260200160405180910390f35b341561030f57600080fd5b6102f260043561085f565b341561032557600080fd5b610172600435600160a060020a0360243516610871565b341561034757600080fd5b6101726004356024356108f6565b341561036057600080fd5b6102f2600435610946565b341561037657600080fd5b610172600435602435610958565b341561038f57600080fd5b6103a3600160a060020a03600435166109a8565b005b600090815260026020526040902054600160a060020a031690565b600080548190819033600160a060020a039081169116146103e057600080fd5b836040518082805190602001908083835b602083106104105780518252601f1990920191602091820191016103f1565b6001836020036101000a0380198251168184511617909252505050919091019250604091505051908190039020600086815260056020526040908190209193505180828054600181600116156101000203166002900480156104a95780601f106104875761010080835404028352918201916104a9565b820191906000526020600020905b815481529060010190602001808311610495575b50509150506040519081900390209050818114156104ca57600092506104ef565b60008581526005602052604090208480516104e9929160200190610a43565b50600192505b505092915050565b6000805433600160a060020a0390811691161461051357600080fd5b60008381526007602052604090205482141561053157506000610546565b50600082815260076020526040902081905560015b92915050565b610554610ac1565b6005600083600019166000191681526020019081526020016000208054600181600116156101000203166002900480601f0160208091040260200160405190810160405280929190818152602001828054600181600116156101000203166002900480156106035780601f106105d857610100808354040283529160200191610603565b820191906000526020600020905b8154815290600101906020018083116105e657829003601f168201915b50505050509050919050565b600080548190819033600160a060020a0390811691161461062f57600080fd5b836040518082805190602001908083835b6020831061065f5780518252601f199092019160209182019101610640565b6001836020036101000a0380198251168184511617909252505050919091019250604091505051908190039020600086815260036020526040908190209193505180828054600181600116156101000203166002900480156106f85780601f106106d65761010080835404028352918201916106f8565b820191906000526020600020905b8154815290600101906020018083116106e4575b505091505060405190819003902090508181141561071957600092506104ef565b60008581526003602052604090208480516104e9929160200190610a43565b60009081526006602052604090205460ff1690565b600054600160a060020a031681565b610764610ac1565b6003600083600019166000191681526020019081526020016000208054600181600116156101000203166002900480601f0160208091040260200160405190810160405280929190818152602001828054600181600116156101000203166002900480156106035780601f106105d857610100808354040283529160200191610603565b6000805433600160a060020a0390811691161461080457600080fd5b60008381526006602052604090205460ff161515821515141561082957506000610546565b50600091825260066020526040909120805460ff1916911515919091179055600190565b60009081526001602052604090205490565b60009081526004602052604090205490565b6000805433600160a060020a0390811691161461088d57600080fd5b600083815260026020526040902054600160a060020a03838116911614156108b757506000610546565b5060008281526002602052604090208054600160a060020a03831673ffffffffffffffffffffffffffffffffffffffff19909116179055600192915050565b6000805433600160a060020a0390811691161461091257600080fd5b60008381526004602052604090205482141561093057506000610546565b5060009182526004602052604090912055600190565b60009081526007602052604090205490565b6000805433600160a060020a0390811691161461097457600080fd5b60008381526001602052604090205482141561099257506000610546565b5060009182526001602081905260409092205590565b60005433600160a060020a039081169116146109c357600080fd5b600160a060020a03811615156109d857600080fd5b600054600160a060020a0380831691167f8be0079c531659141344cd1fd0a4f28419497f9722a3daafe3b4186f6b6457e060405160405180910390a36000805473ffffffffffffffffffffffffffffffffffffffff1916600160a060020a0392909216919091179055565b828054600181600116156101000203166002900490600052602060002090601f016020900481019282601f10610a8457805160ff1916838001178555610ab1565b82800160010185558215610ab1579182015b82811115610ab1578251825591602001919060010190610a96565b50610abd929150610ad3565b5090565b60206040519081016040526000815290565b610aed91905b80821115610abd5760008155600101610ad9565b905600a165627a7a723058201faa23d78c8bc01d9b3f9092f1d27291f85b185f6cae4e76ea55ae1a9b6478080029",
  "source": "pragma solidity ^0.4.18;\r\n\r\nimport \"zeppelin-solidity/contracts/ownership/Ownable.sol\";\r\n\r\n\r\n/// @title The primary persistent storage for updatable contracts\r\n/// @author Aler Denisov <aler.zampillo@gmail.com>\r\ncontract ExternalStorage is Ownable {\r\n  // ███████╗████████╗ ██████╗ ██████╗  █████╗  ██████╗ ███████╗    ███████╗██╗███████╗██╗     ██████╗ ███████╗\r\n  // ██╔════╝╚══██╔══╝██╔═══██╗██╔══██╗██╔══██╗██╔════╝ ██╔════╝    ██╔════╝██║██╔════╝██║     ██╔══██╗██╔════╝\r\n  // ███████╗   ██║   ██║   ██║██████╔╝███████║██║  ███╗█████╗      █████╗  ██║█████╗  ██║     ██║  ██║███████╗\r\n  // ╚════██║   ██║   ██║   ██║██╔══██╗██╔══██║██║   ██║██╔══╝      ██╔══╝  ██║██╔══╝  ██║     ██║  ██║╚════██║\r\n  // ███████║   ██║   ╚██████╔╝██║  ██║██║  ██║╚██████╔╝███████╗    ██║     ██║███████╗███████╗██████╔╝███████║\r\n  // ╚══════╝   ╚═╝    ╚═════╝ ╚═╝  ╚═╝╚═╝  ╚═╝ ╚═════╝ ╚══════╝    ╚═╝     ╚═╝╚══════╝╚══════╝╚═════╝ ╚══════╝                                                                                                              \r\n  mapping(bytes32 => uint)       private uintStorage;\r\n  mapping(bytes32 => address)    private addressStorage;\r\n  mapping(bytes32 => string)     private stringStorage;\r\n  mapping(bytes32 => bytes32)    private bytesStorage;\r\n  mapping(bytes32 => bytes)      private bufferStorage;\r\n  mapping(bytes32 => bool)       private boolStorage;\r\n  mapping(bytes32 => int)        private intStorage;\r\n\r\n\r\n  //  ██████╗ ███████╗████████╗████████╗███████╗██████╗ ███████╗\r\n  // ██╔════╝ ██╔════╝╚══██╔══╝╚══██╔══╝██╔════╝██╔══██╗██╔════╝\r\n  // ██║  ███╗█████╗     ██║      ██║   █████╗  ██████╔╝███████╗\r\n  // ██║   ██║██╔══╝     ██║      ██║   ██╔══╝  ██╔══██╗╚════██║\r\n  // ╚██████╔╝███████╗   ██║      ██║   ███████╗██║  ██║███████║\r\n  //  ╚═════╝ ╚══════╝   ╚═╝      ╚═╝   ╚══════╝╚═╝  ╚═╝╚══════╝\r\n  /// @param _key The key for the record\r\n  /// @return address value stored at providen key\r\n  function getAddress(bytes32 _key) public constant returns (address) {\r\n    return addressStorage[_key];\r\n  }\r\n\r\n  /// @param _key The key for the record\r\n  /// @return uint value stored at providen key\r\n  function getUint(bytes32 _key) public constant returns (uint) {\r\n    return uintStorage[_key];\r\n  }\r\n\r\n  /// @param _key The key for the record\r\n  /// @return bytes32 value stored at providen key\r\n  function getBytes(bytes32 _key) public constant returns (bytes32) {\r\n    return bytesStorage[_key];\r\n  }\r\n\r\n  /// @param _key The key for the record\r\n  /// @return bool value stored at providen key\r\n  function getBool(bytes32 _key) public constant returns (bool) {\r\n    return boolStorage[_key];\r\n  }\r\n\r\n  /// @param _key The key for the record\r\n  /// @return int value stored at providen key\r\n  function getInt(bytes32 _key) public constant returns (int) {\r\n    return intStorage[_key];\r\n  }\r\n\r\n  /// @param _key The key for the record\r\n  /// @return string value stored at providen key\r\n  function getString(bytes32 _key) public constant returns (string) {\r\n    return stringStorage[_key];\r\n  }\r\n\r\n  /// @param _key The key for the record\r\n  /// @return bytes buffer stored at providen key\r\n  function getBuffer(bytes32 _key) public constant returns (bytes) {\r\n    return bufferStorage[_key];\r\n  }\r\n\r\n  // ███████╗███████╗████████╗████████╗███████╗██████╗ ███████╗\r\n  // ██╔════╝██╔════╝╚══██╔══╝╚══██╔══╝██╔════╝██╔══██╗██╔════╝\r\n  // ███████╗█████╗     ██║      ██║   █████╗  ██████╔╝███████╗\r\n  // ╚════██║██╔══╝     ██║      ██║   ██╔══╝  ██╔══██╗╚════██║\r\n  // ███████║███████╗   ██║      ██║   ███████╗██║  ██║███████║\r\n  // ╚══════╝╚══════╝   ╚═╝      ╚═╝   ╚══════╝╚═╝  ╚═╝╚══════╝\r\n  /// @param _key The key for the record\r\n  /// @param _value to store at providen _key\r\n  /// @return bool is value is changed\r\n  function setAddress(bytes32 _key, address _value) onlyOwner public returns (bool) {\r\n    if (addressStorage[_key] == _value) {\r\n      return false;\r\n    }\r\n\r\n    addressStorage[_key] = _value;\r\n    return true;\r\n  }\r\n\r\n  /// @param _key The key for the record\r\n  /// @param _value to store at providen _key\r\n  /// @return bool is value is changed\r\n  function setUint(bytes32 _key, uint _value) onlyOwner public returns (bool) {\r\n    if (uintStorage[_key] == _value) {\r\n      return false;\r\n    }\r\n    uintStorage[_key] = _value;\r\n    return true;\r\n  }\r\n\r\n  /// @param _key The key for the record\r\n  /// @param _value to store at providen _key\r\n  /// @return bool is value is changed\r\n  function setBytes(bytes32 _key, bytes32 _value) onlyOwner public returns (bool) {\r\n    if (bytesStorage[_key] == _value) {\r\n      return false;\r\n    }\r\n    bytesStorage[_key] = _value;\r\n    return true;\r\n  }\r\n\r\n  /// @param _key The key for the record\r\n  /// @param _value to store at providen _key\r\n  /// @return bool is value is changed\r\n  function setBool(bytes32 _key, bool _value) onlyOwner public returns (bool) {\r\n    if (boolStorage[_key] == _value) {\r\n      return false;\r\n    }\r\n    boolStorage[_key] = _value;\r\n    return true;\r\n  }\r\n\r\n  /// @param _key The key for the record\r\n  /// @param _value to store at providen _key\r\n  /// @return bool is value is changed\r\n  function setInt(bytes32 _key, int _value) onlyOwner public returns (bool) {\r\n    if (intStorage[_key] == _value) {\r\n      return false;\r\n    }\r\n    intStorage[_key] = _value;\r\n    return true;\r\n  }\r\n\r\n  /// @param _key The key for the record\r\n  /// @param _value to store at providen _key\r\n  /// @return bool is value is changed\r\n  function setString(bytes32 _key, string _value) onlyOwner public returns (bool) {\r\n    uint providValueHash = uint(keccak256(_value));\r\n    uint storedValueHash = uint(keccak256(stringStorage[_key]));\r\n    if (providValueHash == storedValueHash) {\r\n      return false;\r\n    }\r\n\r\n    stringStorage[_key] = _value;\r\n    return true;\r\n  }\r\n\r\n  /// @param _key The key for the record\r\n  /// @param _value to store at providen _key\r\n  /// @return bool is value is changed\r\n  function setBuffer(bytes32 _key, bytes _value) onlyOwner public returns (bool) {\r\n    uint providValueHash = uint(keccak256(_value));\r\n    uint storedValueHash = uint(keccak256(bufferStorage[_key]));\r\n    if (providValueHash == storedValueHash) {\r\n      return false;\r\n    }\r\n\r\n    bufferStorage[_key] = _value;\r\n    return true;\r\n  }\r\n}\r\n",
  "sourcePath": "A:\\crypto\\musereum\\musereum-contracts\\contracts\\store\\ExternalStorage.sol",
  "compiler": {
    "name": "solc",
    "version": "0.4.21+commit.dfe3193c.Emscripten.clang"
  },
  "schemaVersion": "2.0.0",
  "updatedAt": "2018-04-09T07:16:01.630Z"
}