{
  "contractName": "StorageContractOwnerMock",
  "abi": [
    {
      "constant": true,
      "inputs": [],
      "name": "store",
      "outputs": [
        {
          "name": "",
          "type": "address"
        }
      ],
      "payable": false,
      "stateMutability": "view",
      "type": "function"
    },
    {
      "inputs": [],
      "payable": false,
      "stateMutability": "nonpayable",
      "type": "constructor"
    },
    {
      "constant": true,
      "inputs": [
        {
          "name": "_key",
          "type": "string"
        }
      ],
      "name": "getAddress",
      "outputs": [
        {
          "name": "",
          "type": "address"
        }
      ],
      "payable": false,
      "stateMutability": "view",
      "type": "function"
    },
    {
      "constant": true,
      "inputs": [
        {
          "name": "_key",
          "type": "string"
        }
      ],
      "name": "getUint",
      "outputs": [
        {
          "name": "",
          "type": "uint256"
        }
      ],
      "payable": false,
      "stateMutability": "view",
      "type": "function"
    },
    {
      "constant": true,
      "inputs": [
        {
          "name": "_key",
          "type": "string"
        }
      ],
      "name": "getBool",
      "outputs": [
        {
          "name": "",
          "type": "bool"
        }
      ],
      "payable": false,
      "stateMutability": "view",
      "type": "function"
    },
    {
      "constant": true,
      "inputs": [
        {
          "name": "_key",
          "type": "string"
        }
      ],
      "name": "getInt",
      "outputs": [
        {
          "name": "",
          "type": "int256"
        }
      ],
      "payable": false,
      "stateMutability": "view",
      "type": "function"
    },
    {
      "constant": true,
      "inputs": [
        {
          "name": "_key",
          "type": "string"
        }
      ],
      "name": "getBytes",
      "outputs": [
        {
          "name": "",
          "type": "bytes32"
        }
      ],
      "payable": false,
      "stateMutability": "view",
      "type": "function"
    },
    {
      "constant": false,
      "inputs": [
        {
          "name": "_key",
          "type": "string"
        },
        {
          "name": "_value",
          "type": "address"
        }
      ],
      "name": "setAddress",
      "outputs": [],
      "payable": false,
      "stateMutability": "nonpayable",
      "type": "function"
    },
    {
      "constant": false,
      "inputs": [
        {
          "name": "_key",
          "type": "string"
        },
        {
          "name": "_value",
          "type": "uint256"
        }
      ],
      "name": "setUint",
      "outputs": [],
      "payable": false,
      "stateMutability": "nonpayable",
      "type": "function"
    },
    {
      "constant": false,
      "inputs": [
        {
          "name": "_key",
          "type": "string"
        },
        {
          "name": "_value",
          "type": "bytes"
        }
      ],
      "name": "setBuffer",
      "outputs": [],
      "payable": false,
      "stateMutability": "nonpayable",
      "type": "function"
    },
    {
      "constant": false,
      "inputs": [
        {
          "name": "_key",
          "type": "string"
        },
        {
          "name": "_value",
          "type": "bytes32"
        }
      ],
      "name": "setBytes",
      "outputs": [],
      "payable": false,
      "stateMutability": "nonpayable",
      "type": "function"
    },
    {
      "constant": false,
      "inputs": [
        {
          "name": "_key",
          "type": "string"
        },
        {
          "name": "_value",
          "type": "string"
        }
      ],
      "name": "setString",
      "outputs": [],
      "payable": false,
      "stateMutability": "nonpayable",
      "type": "function"
    },
    {
      "constant": false,
      "inputs": [
        {
          "name": "_key",
          "type": "string"
        },
        {
          "name": "_value",
          "type": "bool"
        }
      ],
      "name": "setBool",
      "outputs": [],
      "payable": false,
      "stateMutability": "nonpayable",
      "type": "function"
    },
    {
      "constant": false,
      "inputs": [
        {
          "name": "_key",
          "type": "string"
        },
        {
          "name": "_value",
          "type": "int256"
        }
      ],
      "name": "setInt",
      "outputs": [],
      "payable": false,
      "stateMutability": "nonpayable",
      "type": "function"
    }
  ],
  "bytecode": "0x6060604052341561000f57600080fd5b610017610104565b604051809103906000f080151561002d57600080fd5b60008054600160a060020a031916600160a060020a0392831617908190551663abfdcced6040517f636f6e74726163742e73746f726167652e696e697469616c69736564000000008152601c01604051809103902060016000604051602001526040517c010000000000000000000000000000000000000000000000000000000063ffffffff8516028152600481019290925215156024820152604401602060405180830381600087803b15156100e357600080fd5b6102c65a03f115156100f457600080fd5b5050506040518051905050610114565b60405161096980610c2c83390190565b610b09806101236000396000f3006060604052600436106100ab5763ffffffff60e060020a600035041663498bff0081146100b057806356523acd146100e05780636e1a1336146101355780639535ce12146101c8578063975057e7146101fa5780639b2ea4bd14610229578063b8b2bdad14610285578063bf40fac1146102da578063c2c5b9f1146102f8578063d8166b5c1461034b578063d8de899d1461039e578063f21cbf43146103bc578063fda69fae1461044f575b600080fd5b34156100bb57600080fd5b6100ce600480356024810191013561046d565b60405190815260200160405180910390f35b34156100eb57600080fd5b61013360046024813581810190830135806020601f8201819004810201604051908101604052818152929190602084018383808284375094965050933593506104fc92505050565b005b341561014057600080fd5b61013360046024813581810190830135806020601f8201819004810201604051908101604052818152929190602084018383808284378201915050505050509190803590602001908201803590602001908080601f0160208091040260200160405190810160405281815292919060208401838380828437509496506105cd95505050505050565b34156101d357600080fd5b6101e660048035602481019101356106e7565b604051901515815260200160405180910390f35b341561020557600080fd5b61020d610755565b604051600160a060020a03909116815260200160405180910390f35b341561023457600080fd5b61013360046024813581810190830135806020601f8201819004810201604051908101604052818152929190602084018383808284375094965050509235600160a060020a03169250610764915050565b341561029057600080fd5b61013360046024813581810190830135806020601f8201819004810201604051908101604052818152929190602084018383808284375094965050505091351515915061081f9050565b34156102e557600080fd5b61020d60048035602481019101356108d3565b341561030357600080fd5b61013360046024813581810190830135806020601f82018190048102016040519081016040528181529291906020840183838082843750949650509335935061094192505050565b341561035657600080fd5b61013360046024813581810190830135806020601f82018190048102016040519081016040528181529291906020840183838082843750949650509335935061098192505050565b34156103a957600080fd5b6100ce60048035602481019101356109c1565b34156103c757600080fd5b61013360046024813581810190830135806020601f8201819004810201604051908101604052818152929190602084018383808284378201915050505050509190803590602001908201803590602001908080601f016020809104026020016040519081016040528181529291906020840183838082843750949650610a2f95505050505050565b341561045a57600080fd5b6100ce6004803560248101910135610a6f565b60008054600160a060020a031663bd02d0f5848460405180838380828437820191505092505050604051809103902060006040516020015260405160e060020a63ffffffff84160281526004810191909152602401602060405180830381600087803b15156104db57600080fd5b6102c65a03f115156104ec57600080fd5b5050506040518051949350505050565b600054600160a060020a031663e2a4853a836040518082805190602001908083835b6020831061053d5780518252601f19909201916020918201910161051e565b6001836020036101000a038019825116818451161790925250505091909101925060409150505180910390208360006040516020015260405160e060020a63ffffffff851602815260048101929092526024820152604401602060405180830381600087803b15156105ae57600080fd5b6102c65a03f115156105bf57600080fd5b505050604051805150505050565b600054600160a060020a0316636e899550836040518082805190602001908083835b6020831061060e5780518252601f1990920191602091820191016105ef565b6001836020036101000a038019825116818451161790925250505091909101925060409150505180910390208360006040516020015260405160e060020a63ffffffff851602815260048101838152604060248301908152909160440183818151815260200191508051906020019080838360005b8381101561069b578082015183820152602001610683565b50505050905090810190601f1680156106c85780820380516001836020036101000a031916815260200191505b509350505050602060405180830381600087803b15156105ae57600080fd5b60008054600160a060020a0316637ae1cfca848460405180838380828437820191505092505050604051809103902060006040516020015260405160e060020a63ffffffff84160281526004810191909152602401602060405180830381600087803b15156104db57600080fd5b600054600160a060020a031681565b600054600160a060020a031663ca446dd9836040518082805190602001908083835b602083106107a55780518252601f199092019160209182019101610786565b6001836020036101000a038019825116818451161790925250505091909101925060409150505180910390208360006040516020015260405160e060020a63ffffffff85160281526004810192909252600160a060020a03166024820152604401602060405180830381600087803b15156105ae57600080fd5b600054600160a060020a031663abfdcced836040518082805190602001908083835b602083106108605780518252601f199092019160209182019101610841565b6001836020036101000a038019825116818451161790925250505091909101925060409150505180910390208360006040516020015260405160e060020a63ffffffff8516028152600481019290925215156024820152604401602060405180830381600087803b15156105ae57600080fd5b60008054600160a060020a03166321f8a721848460405180838380828437820191505092505050604051809103902060006040516020015260405160e060020a63ffffffff84160281526004810191909152602401602060405180830381600087803b15156104db57600080fd5b600054600160a060020a0316633e49bed0836040518082805190602001908083836020831061053d5780518252601f19909201916020918201910161051e565b600054600160a060020a031663d5d2c560836040518082805190602001908083836020831061053d5780518252601f19909201916020918201910161051e565b60008054600160a060020a031663c031a180848460405180838380828437820191505092505050604051809103902060006040516020015260405160e060020a63ffffffff84160281526004810191909152602401602060405180830381600087803b15156104db57600080fd5b600054600160a060020a0316632e005076836040518082805190602001908083836020831061060e5780518252601f1990920191602091820191016105ef565b60008054600160a060020a031663dc97d962848460405180838380828437820191505092505050604051809103902060006040516020015260405160e060020a63ffffffff84160281526004810191909152602401602060405180830381600087803b15156104db57600080fd00a165627a7a723058202128342163e8e807569638bb5a9bf01ada1b1f3c1c71ec62b759594a2deb1b1d0029606060405260008054600160a060020a033316600160a060020a0319909116179055610939806100306000396000f3006060604052600436106100e55763ffffffff7c010000000000000000000000000000000000000000000000000000000060003504166321f8a72181146100ea5780632e0050761461011c5780633e49bed014610186578063553448ca1461019f5780636e8995501461022c5780637ae1cfca146102825780638da5cb5b14610298578063986e791a146102ab578063abfdcced146102c1578063bd02d0f5146102dc578063c031a18014610304578063ca446dd91461031a578063d5d2c5601461033c578063dc97d96214610355578063e2a4853a1461036b578063f2fde38b14610384575b600080fd5b34156100f557600080fd5b6101006004356103a5565b604051600160a060020a03909116815260200160405180910390f35b341561012757600080fd5b610172600480359060446024803590810190830135806020601f820181900481020160405190810160405281815292919060208401838380828437509496506103c095505050505050565b604051901515815260200160405180910390f35b341561019157600080fd5b610172600435602435610407565b34156101aa57600080fd5b6101b5600435610457565b60405160208082528190810183818151815260200191508051906020019080838360005b838110156101f15780820151838201526020016101d9565b50505050905090810190601f16801561021e5780820380516001836020036101000a031916815260200191505b509250505060405180910390f35b341561023757600080fd5b610172600480359060446024803590810190830135806020601f8201819004810201604051908101604052818152929190602084018383808284375094965061051a95505050505050565b341561028d57600080fd5b610172600435610555565b34156102a357600080fd5b61010061056a565b34156102b657600080fd5b6101b5600435610579565b34156102cc57600080fd5b6101726004356024351515610605565b34156102e757600080fd5b6102f260043561066a565b60405190815260200160405180910390f35b341561030f57600080fd5b6102f260043561067c565b341561032557600080fd5b610172600435600160a060020a036024351661068e565b341561034757600080fd5b610172600435602435610713565b341561036057600080fd5b6102f2600435610763565b341561037657600080fd5b610172600435602435610775565b341561038f57600080fd5b6103a3600160a060020a03600435166107c5565b005b600090815260026020526040902054600160a060020a031690565b6000805433600160a060020a039081169116146103dc57600080fd5b60008381526005602052604090208280516103fb929160200190610860565b50600190505b92915050565b6000805433600160a060020a0390811691161461042357600080fd5b60008381526007602052604090205482141561044157506000610401565b5060009182526007602052604090912055600190565b61045f6108de565b6005600083600019166000191681526020019081526020016000208054600181600116156101000203166002900480601f01602080910402602001604051908101604052809291908181526020018280546001816001161561010002031660029004801561050e5780601f106104e35761010080835404028352916020019161050e565b820191906000526020600020905b8154815290600101906020018083116104f157829003601f168201915b50505050509050919050565b6000805433600160a060020a0390811691161461053657600080fd5b60008381526003602052604090208280516103fb929160200190610860565b60009081526006602052604090205460ff1690565b600054600160a060020a031681565b6105816108de565b6003600083600019166000191681526020019081526020016000208054600181600116156101000203166002900480601f01602080910402602001604051908101604052809291908181526020018280546001816001161561010002031660029004801561050e5780601f106104e35761010080835404028352916020019161050e565b6000805433600160a060020a0390811691161461062157600080fd5b60008381526006602052604090205460ff161515821515141561064657506000610401565b50600091825260066020526040909120805460ff1916911515919091179055600190565b60009081526001602052604090205490565b60009081526004602052604090205490565b6000805433600160a060020a039081169116146106aa57600080fd5b600083815260026020526040902054600160a060020a03838116911614156106d457506000610401565b5060008281526002602052604090208054600160a060020a03831673ffffffffffffffffffffffffffffffffffffffff19909116179055600192915050565b6000805433600160a060020a0390811691161461072f57600080fd5b60008381526004602052604090205482141561074d57506000610401565b5060009182526004602052604090912055600190565b60009081526007602052604090205490565b6000805433600160a060020a0390811691161461079157600080fd5b6000838152600160205260409020548214156107af57506000610401565b5060009182526001602081905260409092205590565b60005433600160a060020a039081169116146107e057600080fd5b600160a060020a03811615156107f557600080fd5b600054600160a060020a0380831691167f8be0079c531659141344cd1fd0a4f28419497f9722a3daafe3b4186f6b6457e060405160405180910390a36000805473ffffffffffffffffffffffffffffffffffffffff1916600160a060020a0392909216919091179055565b828054600181600116156101000203166002900490600052602060002090601f016020900481019282601f106108a157805160ff19168380011785556108ce565b828001600101855582156108ce579182015b828111156108ce5782518255916020019190600101906108b3565b506108da9291506108f0565b5090565b60206040519081016040526000815290565b61090a91905b808211156108da57600081556001016108f6565b905600a165627a7a723058204a567b11443713e42db0b2cba5a00ae1e404e37e752bf798355540d8cdcac69c0029",
  "source": "pragma solidity 0.4.19;\n\nimport \"../store/ExternalStorage.sol\";\n\ncontract StorageContractOwnerMock {\n  ExternalStorage public store;\n\n  function StorageContractOwnerMock() public {\n    store = new ExternalStorage();\n    store.setBool(keccak256(\"contract.storage.initialised\"), true);\n  }\n\n  function getAddress(string _key) external constant returns (address) {\n      return store.getAddress(keccak256(_key));\n  }\n  /// @param _key The key for the record\n  function getUint(string _key) external constant returns (uint) {\n      return store.getUint(keccak256(_key));\n  }\n\n  /// @param _key The key for the record\n  function getBool(string _key) external constant returns (bool) {\n      return store.getBool(keccak256(_key));\n  }\n\n  /// @param _key The key for the record\n  function getInt(string _key) external constant returns (int) {\n      return store.getInt(keccak256(_key));\n  }\n\n  function getBytes(string _key) external constant returns (bytes32) {\n      return store.getBytes(keccak256(_key));\n  }\n\n  /// @param _key The key for the record\n  function setAddress(string _key, address _value) public {\n      store.setAddress(keccak256(_key), _value);\n  }\n\n  /// @param _key The key for the record\n  function setUint(string _key, uint _value) public {\n      store.setUint(keccak256(_key), _value);\n  }\n\n  /// @param _key The key for the record\n  function setBuffer(string _key, bytes _value) public {\n      store.setBuffer(keccak256(_key), _value);\n  }\n\n  function setBytes(string _key, bytes32 _value) public {\n      store.setBytes(keccak256(_key), _value);\n  }\n\n  function setString(string _key, string _value) public {\n      store.setString(keccak256(_key), _value);\n  }\n  \n  /// @param _key The key for the record\n  function setBool(string _key, bool _value) public {\n      store.setBool(keccak256(_key), _value);\n  }\n  \n  /// @param _key The key for the record\n  function setInt(string _key, int _value) public {\n      store.setInt(keccak256(_key), _value);\n  }\n}",
  "sourcePath": "/Users/aler/crypto/musereum/musereum-contracts/contracts/mocks/StorageContractOwnerMock.sol",
  "compiler": {
    "name": "solc",
    "version": "0.4.19+commit.c4cbbb05.Emscripten.clang"
  },
  "schemaVersion": "1.0.1",
  "updatedAt": "2018-03-02T12:21:15.942Z"
}